:020000040800F2
:1000000070060020ED010008030E00080D0D000829
:10001000010E0008E3030008770E0008000000004E
:10002000000000000000000000000000070E0008B3
:10003000E503000800000000050E0008090E000896
:10004000070200080702000807020008070200086C
:10005000070200080702000807020008070200085C
:10006000070200080702000807020008070200084C
:10007000070200080702000807020008070200083C
:10008000070200080702000807020008070200082C
:10009000070200080702000807020008070200081C
:1000A000070200080702000807020008070200080C
:1000B00007020008070200080702000807020008FC
:1000C00007020008070200080702000807020008EC
:1000D00007020008070200080702000807020008DC
:1000E00007020008070200080702000800000000DD
:1000F0000000000000000000000000000000000000
:1001000000000000000000000702000807020008CD
:10011000070200080702000807020008070200089B
:10012000070200080702000807020008070200088B
:10013000070200080702000807020008070200087B
:10014000070200080702000807020008070200086B
:1001500000F002F800F03AF80AA090E8000C82449F
:100160008344AAF10107DA4501D100F02FF8AFF27C
:10017000090EBAE80F0013F0010F18BFFB1A43F085
:1001800001031847B80E0000D80E0000103A24BF33
:1001900078C878C1FAD8520724BF30C830C144BFEC
:1001A00004680C607047000000230024002500262E
:1001B000103A28BF78C1FBD8520728BF30C148BFCA
:1001C0000B6070471FB51FBD10B510BD00F0CFF814
:1001D0001146FFF7F7FF00F05FFE00F0EDF803B403
:1001E000FFF7F2FF03BC00F0F5F800000948804774
:1001F00009480047FEE7FEE7FEE7FEE7FEE7FEE709
:10020000FEE7FEE7FEE7FEE704480549054A064B20
:1002100070470000750E00085101000870000020B2
:1002200070060020700200207002002053EA020CC9
:1002300000F069802DE9F04B4FF00006002B1FBF46
:10024000B3FA83F503FA05F424FA05F65E4012BF0B
:100250001643B2FA82F502FA05F4C5F120051EBF75
:1002600022FA05FC44EA0C04203556EA044C4FEA15
:10027000144418BF641C4FF000084FF0000990426E
:1002800071EB030C39D3002919BFB1FA81F701FAD8
:1002900007F6B0FA80F700FA07F6C7F120071EBF8D
:1002A00020FA07FC46EA0C062037B6FBF4FCA7EB65
:1002B0000507103F07F01F0BCBF120060CFA0BFBD4
:1002C0002CFA06F644BFB3460026202FA4BF5E4694
:1002D0004FF0000B5BEA060C08BF4FF0010B19EB67
:1002E0000B09ABFB027C48EB0608C01B06FB02CCEB
:1002F0000BFB03CC71EB0C01C1E70B4602464146F8
:100300004846BDE8F08B13B54FF000004FF00001F8
:10031000AFF30080BDE81C4070474FF0000200B50D
:10032000134694469646203922BFA0E80C50A0E818
:100330000C50B1F12001BFF4F7AF090728BFA0E8C6
:100340000C5048BF0CC05DF804EB890028BF40F892
:10035000042B08BF704748BF20F8022B11F0804FD4
:1003600018BF00F8012B70477047704770477546FB
:1003700000F02CF8AE4605006946534620F0070011
:10038000854618B020B5FFF73FFFBDE820404FF08D
:1003900000064FF000074FF000084FF0000B21F06F
:1003A0000701AC46ACE8C009ACE8C009ACE8C0093C
:1003B000ACE8C0098D46704710B50446AFF3008025
:1003C0002046BDE81040FFF70ABF00000048704714
:1003D0001000002001491820ABBEFEE726000200F5
:1003E0007047FEE77047000070B5044600F004F95E
:1003F0000546601C02D004480078044400F0FCF874
:10040000401BA042FAD370BD000000202DE9F84F38
:10041000DFF8B891002409F1040A0AF1040B23461D
:100420000F270BF1040EC9E00125A5402A40AA427E
:100430007DD1674ED1F804C0ACEB0608B44532D08C
:1004400014DCBCF1030F3AD009DCBCF1000F2AD058
:10045000BCF1010F1CD0BCF1020F31D11DE0BCF189
:10046000110F17D0BCF1120F2AD119E0B8F5881F6F
:1004700019D006DCB8F5803F15D0B8F5801F1FD124
:1004800011E0B8F5001F0ED0B8F5041F18D10AE02E
:10049000CB6815E0CB681B1D12E0CB6808330FE07A
:1004A000CB680C330CE08B682BB1012B4FF00803A9
:1004B00003D0456104E0042302E0056100E000236D
:1004C000FF2A01D8064601E000F104064FEA840540
:1004D00001D9A5F12005D6F8008007FA05FC28EA25
:1004E0000C0803FA05F548EA0508C6F800804D68CF
:1004F000ED0062D5374DAE6946F00106AE61AD69DB
:1005000024F0030605F001050095334D06EB050CBC
:10051000DCF80850A607360F07FA06F825EA0805A2
:10052000DFF8B880404503D14FF0000817E044E001
:10053000DFF8AC80404502D14FF001080FE0DFF852
:10054000A480404502D14FF0020808E0DFF898800F
:10055000404502D14FF0030801E04FF0040808FACB
:1005600006F848EA0508CCF808804D68D9F800601C
:10057000ED034D4601D5164300E096432E604D68CD
:10058000DAF80060AD03554601D5164300E0964306
:100590002E604D68DBF80060ED025D4601D5164324
:1005A00000E096432E604D68DEF80060AD027546AF
:1005B00001D5164300E096432E60641C0D682A4660
:1005C000E5407FF431AFBDE8F88F00000004014042
:1005D000000011100010024000000140000801401E
:1005E000000C014000100140001401400AB10161FB
:1005F00070470904FBE7000001488068704700006D
:100600000000002002488168027811448160704730
:1006100000000020074810B5016841F0100101609A
:10062000032000F067F80F2000F006F800F024F82F
:10063000002010BD0020024070B50D4D04464FF45F
:100640007A712878B1FBF0F00A490968B1FBF0F043
:1006500000F048FB48B9102C07D200222146501E5A
:1006600000F028F800206C6070BD012070BD000013
:10067000000000200C0000200C4808B5816941F002
:1006800001018161816901F001010091C16941F0BD
:100690008051C161C06900F08050009004484168F9
:1006A00021F0E06141F00071416008BD001002409E
:1006B00000000140F0B40E4B1B680C46C3F302234C
:1006C000C3F10705042D00D90425191D072901D2FE
:1006D000002300E0DB1E012606FA05F1491E214039
:1006E00099409E40761E16403143F0BC00F0C4BBDA
:1006F0000CED00E0064900F0070208684FF6FF0322
:10070000184040EA0220034A104308607047000086
:100710000CED00E00000FA052DE9F0470F4605005A
:1007200061D0434E306800F00700B84209D230680B
:1007300020F0070038433060306800F00700B8420E
:1007400051D128683B4C810712D5400703D560681A
:1007500040F4E06060602878000703D5606840F4EA
:10076000605060606068A96820F0F0000843606035
:100770002878C00728D06868012810D0216802288E
:1007800010D0890700292EDA616821F003010143A6
:100790006160FFF731FF804641F288390DE0216842
:1007A0008903EFE78901EDE7FFF726FFA0EB0801DA
:1007B000494502D90320BDE8F0876068696800F008
:1007C0000C00B0EB810FEFD1306800F00700B842A9
:1007D0000BD9306820F0070038433060306800F0F3
:1007E0000700B84201D00120E5E72878400705D589
:1007F0006068E96820F4E0600843606028780007DA
:1008000006D56068296920F4605040EAC100606044
:1008100000F018F86168084AC1F30311515CC84040
:100820000649086006480068FFF706FF0020C2E797
:1008300000200240001002402C1000080C00002094
:1008400004000020F0B523A289B00FCA04AC84E8EC
:100850000F0024A10FC98DE80F0026494A682648D9
:1008600002F00C03042B2FD0082B2DD104A8C2F3C7
:100870008343C45CD00329D5C86A00F00F001DF87B
:100880000020C86AC00316D5C86AC96AC0F303103D
:10089000C1F30321401C891CA0FB0223A1FB041609
:1008A000154F0025A1FB070C06FB07C601FB0561E0
:1008B000FFF7BCFC03E010486043B0FBF2F09DF88A
:1008C0001D10A14200D1400809B0F0BD0B486043A3
:1008D000FAE7000000000405060708090000000010
:1008E000000D00000102030405060708090A0B0CAD
:1008F0000D0E0F100010024000127A0000093D009A
:100900002DE9F84F040070D02078F14DC00749D090
:100910006868C0F38100012807D06868C0F38100CF
:10092000022809D16868C00306D52868800339D534
:10093000A0680028E7D035E0A068B0F5803F0BD074
:1009400010B1B0F5A02F11D0286820F480302860B5
:10095000286820F4802002E0286840F48030286075
:10096000A06890B1FFF748FE06460AE0286840F408
:1009700080202860F0E700BFFFF73EFE801B642860
:1009800076D828688003F7D50CE0FFF735FE0646D9
:1009900005E000BFFFF730FE801B6428F0D8286810
:1009A0008003F7D42078CB4E80074FF001094FF039
:1009B00000073AD5686810F00C0F07D06868C0F3DC
:1009C0008100022809D16868C00306D4286880071E
:1009D00015D56069012808D111E06069B8B1C6F881
:1009E0000090FFF709FE804606E042E1FFF704FEB3
:1009F000A0EB08000228C3D828688007F6D528682D
:100A0000A16920F0F80040EAC10028600DE03760DD
:100A1000FFF7F2FD804605E0FFF7EEFDA0EB0800D2
:100A20000228ADD828688007F6D4207800072ED594
:100A3000A948E169E9B1C0F80090FFF7DDFD804603
:100A400006E000BFFFF7D8FDA0EB0800022897D80A
:100A5000686A8007F6D5A1484FF4FA510068B0FBE8
:100A6000F1F0009000BF0098411E0091FAD20EE014
:100A7000B0E00760FFF7C0FD804605E0FFF7BCFD72
:100A8000A0EB0800022889D8686A8007F6D420788D
:100A9000400763D5E8694FF00008C00009D4E86951
:100AA00040F08050E861E8694FF0010800F08050A4
:100AB00000908B480168C90512D40168834641F44F
:100AC00080710160FFF798FD824605E0FFF794FD15
:100AD000A0EB0A0064287DD8DBF80000C005F5D53E
:100AE000206901280AD008B1052813D0286A20F00F
:100AF00001002862286A20F0040002E0286A40F021
:100B000001002862206941F2883B98B1FFF774FD2B
:100B100082460BE0286A40F004002862EEE700BF3E
:100B2000FFF76AFDA0EB0A01594553D8286A8007F0
:100B3000F6D50CE0FFF760FD824605E0FFF75CFDAF
:100B4000A0EB0A01594545D8286A8007F6D4B8F1C8
:100B5000000F03D0E86920F08050E861E06AD0B36C
:100B60006968C90307D56968C1F38101022902D107
:100B7000E96AC9037DD4022808D0E86A20F48030ED
:100B8000E862B766FFF738FD80463BE02868C000A2
:100B900005D5E86A616B00F0F000884269D1B7665C
:100BA000FFF72AFD804605E0FFF726FDA0EB0800D1
:100BB000642874D828680001F6D4E86A616B20F0D4
:100BC000F0000843E862E86A216B20F47060084393
:100BD000E86201E063E018E0C6F86890FFF70CFDFA
:100BE000804605E0FFF708FDA0EB0800642856D812
:100BF00028680001F6D508E0FFF7FEFCA0EB08002E
:100C000064284CD828680001F6D4206A90B369683B
:100C1000C1F38101022949D00228376603D0FFF7CA
:100C2000EBFC04463EE0FFF7E7FC074605E000BFAB
:100C3000FFF7E2FCC01B022831D828688001F7D4F6
:100C4000606AB0F5803F09D1E86A61680843E862EC
:100C5000E86AE16820F00F000843E862D4E909017E
:100C60000843696821F4741108436860C6F860900D
:100C700001E028E029E0FFF7BFFC044605E000BFE3
:100C8000FFF7BAFC001B022809D828688001F7D5B5
:100C90001BE000BFFFF7B0FC001B022802D90320B5
:100CA000BDE8F88F28688001F4D40EE00128F7D061
:100CB0006868626A00F48031914204D1A16A00F44C
:100CC0007010884201D00120EAE70020E8E7000028
:100CD0000010024000004242800442420C0000200A
:100CE0000070004010B5401EB0F1807F01D301209C
:100CF00010BD4FF0E02460610F21601700F0BCF8D8
:100D00000020A06107202061002010BDFEE7000048
:100D10002DE9F04F85B000243448009401940294EA
:100D20000394816941F010018161816901F0100132
:100D30000491816941F004018161816901F004013C
:100D40000491816941F040018161816901F04001B4
:100D50000491816941F0080181618069DFF890A008
:100D600000F008000490002201215046FFF73EFCED
:100D7000DFF880B04FF4D447002239465846FFF7D9
:100D800035FC4FF48068002241461B48FFF72EFCDB
:100D90004FF4E079002249461848FFF727FC012567
:100DA000022603960095CDE9015469465046FFF7A7
:100DB0002DFB00970396CDE9015469465846FFF78D
:100DC00025FBCDF800800396CDE9015469460A4819
:100DD000FFF71CFBCDF800900396CDE9015469465E
:100DE0000648FFF713FB05B0BDE8F08F0010024086
:100DF0000008014000180140000C014000100140B3
:100E0000FEE7FEE770477047FFF7FCBB70B594B094
:100E100038216846FFF781FA14210EA8FFF77DFA02
:100E2000012500242804CDE902040226CDE908604A
:100E30000095059501944FF4E010CDE90A04684649
:100E4000FFF75EFD08B172B6FEE70F20CDE90E0692
:100E50004FF48060CDE9104002210EA81294FFF7F4
:100E60005BFC08B172B6FEE70148056714B070BDBF
:100E7000000042427047FEE70907090E002804DB24
:100E800000F1E02080F80014704700F00F0000F13E
:100E9000E02080F8141D7047FFF7BCFBFFF7B6FF9A
:100EA000FFF736FF5F4C012251032046FFF79EFB00
:100EB0000022E1142046FFF799FB0122510220464F
:100EC000FFF794FB584D012211022846FFF78EFBD5
:100ED000002280212846FFF789FB01224021284675
:100EE000FFF784FB4F4C00224FF400512046FFF7E0
:100EF0007DFB4D4E0022A1153046FFF777FBE51430
:100F0000002229462046FFF771FB00222946204691
:100F1000FFF76CFB0025A1464FF4FA7A6415B04642
:100F20004FF47A7B01E055451DDC002221464E46F8
:100F30004846FFF75BFB0022402147464046FFF74B
:100F400055FB0520FFF750FA012221463046FFF7F6
:100F50004DFB012240213846FFF748FB0520FFF7F3
:100F600043FA5F460FE0002221463046FFF73EFB82
:100F70000520FFF739FA012221463046FFF736FBFC
:100F80000520FFF731FA6D1CBD42CCDD5046FFF75E
:100F90002BFA0122D1024E464846FFF727FB0122D9
:100FA00080212148FFF722FBD146A3460025B04609
:100FB0001D4CBA4601E0B5421EDC00225E46594691
:100FC00047464046FFF712FB002240212046FFF72C
:100FD0000DFB0520FFF708FA012231463846FFF7DE
:100FE00005FB012240212046FFF700FB0520FFF70B
:100FF000FBF94E4657460FE0002240212046FFF7FE
:10100000F5FA0520FFF7F0F9012240212046FFF70D
:10101000EDFA0520FFF7E8F96D1CBD423FF762AF1E
:10102000C9E7000000180140001001400000000066
:101030000000000001020304060708095C10000814
:1010400000000020100000008C0100086C10000857
:101050001000002060060000A80100080100000048
:0C10600010000000000000000024F4005C
:04000005080001519D
:00000001FF
