:020000040800F2
:1000000038040020211A0008C5070008C7070008A7
:10001000CB070008CF070008D30700080000000046
:10002000000000000000000000000000D7070008EA
:10003000D907000800000000DB070008DD07000802
:100040003B1A00083B1A00083B1A00083B1A00083C
:100050003B1A00083B1A00083B1A00083B1A00082C
:100060003B1A00083B1A00083B1A00083B1A00081C
:100070003B1A00083B1A00083B1A00083B1A00080C
:100080003B1A00083B1A00083B1A00083B1A0008FC
:100090003B1A00083B1A00083B1A00083B1A0008EC
:1000A0003B1A00083B1A00083B1A00083B1A0008DC
:1000B0003B1A00083B1A00083B1A00083B1A0008CC
:1000C0003B1A00083B1A00083B1A00083B1A0008BC
:1000D0003B1A00083B1A00083B1A00083B1A0008AC
:1000E0003B1A00083B1A00083B1A000800000000F9
:1000F0000000000000000000000000000000000000
:1001000000000000000000003B1A00083B1A000835
:100110003B1A00083B1A00083B1A00083B1A00086B
:100120003B1A00083B1A00083B1A00083B1A00085B
:100130003B1A00083B1A00083B1A00083B1A00084B
:100140003B1A00083B1A00083B1A00083B1A00083B
:10015000DFF810D001F076FC004800470D070008DA
:10016000AFF300803804002070B504460D46A1B2FC
:10017000FE4801F04BFA00BF4021FC4801F0B4FA00
:100180000028F9D0204670BD01B54FF47A7200996D
:1001900051437E22B1FBF2F000BF411E081EFCD18C
:1001A00008BD01B5F24A009951437E22B1FBF2F03D
:1001B00000BF411E081EFCD108BD704710B50121CB
:1001C000042000F03EFC0121084600F03AFC012129
:1001D000E84800F036FC10BD10B5012144F20100E2
:1001E00000F0C9FE0121080300F0C5FE10BD08B5EE
:1001F00001217C2000F0BFFE0420ADF8000010209B
:100200008DF8030003208DF802006946DA4800F0FB
:1002100047FB18208DF8030003208DF802004020D2
:10022000ADF800006946D44800F03AFB04208DF890
:1002300003008020ADF800006946CF4800F030FB95
:100240003820ADF8000018208DF8030003208DF849
:1002500002006946C84800F023FB0821C64800F0A8
:10026000CCFB2021C44800F0C8FBFF20ADF8000003
:1002700004208DF803006946C04800F011FB1020EF
:10028000ADF800008DF8030003208DF802006946E8
:10029000BB4800F005FB1021B94800F0AEFB082078
:1002A000ADF800006946B74800F0FAFA08BD1FB57E
:1002B00004464FF4E13000900020ADF80400ADF8A2
:1002C0000600ADF80800ADF80C000C20ADF80A00EF
:1002D0006946204601F0A1F8012240F2255120464E
:1002E00001F033F90121204601F023F91FBD10B5BB
:1002F000044624B1012C07D0022C1AD109E00421B4
:100300009D4800F07AFB15E004219B4800F077FB44
:1003100010E00421984800F063FB012804D1042177
:10032000954800F06CFB03E00421934800F065FB66
:1003300000E000BF00BF10BD00B585B000219248AD
:1003400000F06AFF0020ADF800004FF48270ADF8B5
:1003500002000020ADF804000220ADF806000120E4
:10036000ADF808004002ADF80A002020ADF80C00FE
:100370000020ADF80E000720ADF810006946824855
:1003800000F084FE0121804800F046FF05B000BD6A
:1003900070B50546002405E0601CC4B2C82C01DD20
:1003A000002070BD0221784800F0BAFF0028F3D089
:1003B0002946754800F061FF002405E0601CC4B2C6
:1003C000C82C01DD0020ECE701216F4800F0A8FFF8
:1003D0000028F3D06C4800F052FFE2E710B5044665
:1003E0002046FFF7D5FF0821664800F008FB0120F2
:1003F000FFF7CAFE0821634800F0FFFA10BD10B5F0
:1004000062480078FFF7EAFF6048007880F0020059
:100410005E49087010BD10B50121584800F0D3FAAC
:1004200004468CB15A48007800F00100E8B95848F9
:10043000007840F00100564908700620FFF7CEFF13
:1004400054A001F011FB10E05148007800F00100C9
:1004500058B14F48007820F001004D490870FF2046
:10046000FFF7BCFF4EA001F0FFFA0221434800F065
:10047000AAFA044674B14648007800F00200B8B900
:100480004348007840F002004149087047A001F05D
:10049000EBFA0DE03E48007800F0020040B13C4825
:1004A000007820F002003A49087043A001F0DCFA1D
:1004B0000421324800F087FA04468CB134480078B1
:1004C00000F00400E8B93248007840F004003049F8
:1004D0000870ED20FFF782FF3AA001F0C5FA10E0A6
:1004E0002B48007800F0040058B12948007820F02B
:1004F0000400274908703F20FFF770FF34A001F087
:10050000B3FA08211D4800F05EFA044674B1204891
:10051000007800F00800B8B91D48007840F00800E5
:100520001B4908702EA001F09FFA0DE018480078D2
:1005300000F0080040B11648007820F00800144987
:1005400008702AA001F090FA10210C4800F03BFA44
:1005500004464CB10E48007800F0100028B90C4851
:10056000007840F0100047E04FE05FE000380140C5
:1005700040420F0000023000000C01400018014012
:100580000014014000100140003001400000002034
:1005900001000020444931203D20300D0A000000B8
:1005A000444931203D20310D0A00000044493220E9
:1005B0003D20300D0A000000444932203D20310D1D
:1005C0000A000000444933203D20300D0A0000009D
:1005D000444933203D20312C204F4E0D0A000000AD
:1005E000444934203D20300D0A00000044493420A5
:1005F0003D20310D0A00000055490870DB20FFF74F
:10060000EDFE54A001F030FA10E05148007800F0FF
:10061000100058B14E48007820F010004C49087086
:100620003F20FFF7DBFE4EA001F01EFA20214F48CD
:1006300000F0C9F9044674B14548007800F0200084
:10064000B8B94348007840F020004149087048A0FC
:1006500001F00AFA0DE03E48007800F0200040B1B9
:100660003B48007820F020003949087043A001F091
:10067000FBF940213D4800F0A6F904468CB134480E
:10068000007800F04000E8B93148007840F04000C0
:100690002F4908700020FFF7A1FE3BA001F0E4F90C
:1006A00010E02B48007800F0400058B1284800784E
:1006B00020F04000264908703F20FFF78FFE35A04C
:1006C00001F0D2F98021294800F07DF9044674B187
:1006D0001F48007800F08000B8B91D48007840F04D
:1006E00080001B4908702EA001F0BEF90DE01848EB
:1006F000007800F0800040B11548007820F08000BC
:100700001349087029A001F0AFF910BD00BF00BF68
:10071000FFF762FDFFF76BFDFFF750FDFFF74DFDA3
:100720002548FFF7C4FDFFF707FE1021234800F01E
:1007300066F90821224800F062F9FF20FFF74EFE1B
:1007400004E01420FFF72DFDFFF765FEF9E7000038
:1007500001000020444935203D20300D0A000000F2
:10076000444935203D20310D0A00000000180140A9
:10077000444936203D20300D0A000000444936200F
:100780003D20310D0A000000444937203D20300D46
:100790000A000000444937203D20310D0A000000C6
:1007A000444938203D20300D0A00000044493820DB
:1007B0003D20310D0A0000000038014000140140C6
:1007C00000100140704700BFFEE700BFFEE700BF1A
:1007D000FEE700BFFEE770477047704770470000B4
:1007E00010B50446CC48844208D10121042000F011
:1007F000E9FB0021042000F0E5FB46E0C748844205
:1008000008D10121082000F0DDFB0021082000F0C4
:10081000D9FB3AE0C248844208D10121102000F0FF
:10082000D1FB0021102000F0CDFB2EE0BD4884421A
:1008300008D10121202000F0C5FB0021202000F07C
:10084000C1FB22E0B848844208D10121402000F0D9
:10085000B9FB0021402000F0B5FB16E0B34884420C
:1008600008D10121802000F0ADFB0021802000F0A4
:10087000A9FB0AE0AE48844207D10121801500F0AF
:10088000A1FB0021A01500F09DFB10BD10B50121BA
:10089000084600F097FB0021012000F093FB10BDFB
:1008A0002DE9F04102460025002600200023002407
:1008B000002791F803C00CF00F0591F803C00CF06D
:1008C000100CBCF1000F03D091F802C04CEA0505F2
:1008D00091F800C0BCF1000F31D0146800202BE06B
:1008E0004FF0010C0CFA00F3B1F800C00CEA03065B
:1008F0009E4220D183004FF00F0C0CFA03F7BC434B
:1009000005FA03FC4CEA040491F803C0BCF1280F7B
:1009100006D14FF0010C0CFA00FCC2F814C00AE03A
:1009200091F803C0BCF1480F05D14FF0010C0CFA4F
:1009300000FCC2F810C0401C0828D1D31460B1F8E4
:1009400000C0BCF1FF0F34DD546800202EE000F140
:10095000080C4FF0010808FA0CF3B1F800C00CEADB
:1009600003069E4221D183004FF00F0C0CFA03F7CF
:10097000BC4305FA03FC4CEA040491F803C0BCF143
:10098000280F05D100F1080C08FA0CF8C2F8148001
:1009900091F803C0BCF1480F07D100F1080C4FF0EB
:1009A000010808FA0CF8C2F81080401C0828CED3C1
:1009B0005460BDE8F0814FF6FF7101800221817023
:1009C0000421C17070470246002093680B400BB1B0
:1009D000012000E0002070470146886880B270471F
:1009E00002460020D3680B400BB1012000E000203C
:1009F00070470146C86880B2704701617047416125
:100A000070470AB1016100E041617047C160704701
:100A10004FF480320A438261816182618269826916
:100A2000704702460020434B18684FF68073184009
:100A300040EA021008433F4B186070473E49C861C6
:100A40007047F0B50A46002300240021002500F07D
:100A50000046B6F1004F02D1364EF16901E0354E45
:100A60007168C0F3034583B200F44016B6F5401F29
:100A700008D121F070612F4E766826F070662D4FF8
:100A80007E6012E000F48016B6F5801F06D10326C2
:100A900006FA05F4A14341F0706106E0460D360107
:100AA00003FA06F6B14341F0706122B1460D3601FA
:100AB00003FA06F6314300F00046B6F1004F02D1CA
:100AC0001C4EF16101E01B4E7160F0BD30B500229B
:100AD0008B071C0F0F2303FA04F2164B08338C10FC
:100AE00053F824309343134C08348D1044F82530C8
:100AF00023468C1053F824308C07240F00FA04F49A
:100B000023430C4C08348D1044F8253030BD0A497D
:100B1000DC3108607047000000080140000C014013
:100B2000001001400014014000180140001C014069
:100B3000002001400000014000002042FB48006806
:100B400040F00100F949086008464068F84908404B
:100B5000F649486008460068F6490840F3490860CD
:100B60000846006820F4802008600846406820F4A9
:100B7000FE0048600846006820F0A05008604FF46E
:100B80007F0088600020C8627047E849096821F446
:100B90008031E64A11601146096821F48021116014
:100BA000B0F5803F03D0B0F5802F0ED106E0DF49CD
:100BB000096841F48031DD4A116007E0DB490968CA
:100BC00041F4A021D94A116000E000BF00BF704786
:100BD00010B501460022002300204A11012A02D14B
:100BE000D24C236806E0022A02D1D04C236A01E0ED
:100BF000CE4C636A01F01F02012494401C400CB1EA
:100C0000012000E0002010BD38B500200090002435
:100C1000002500BF3120FFF7DBFF05460098401C90
:100C200000900098B0F5A06F01D0002DF2D03120D7
:100C3000FFF7CEFF08B1012400E00024204638BDB4
:100C400001460020B94A106820F0F80040EAC100CF
:100C500010607047B8490860704702460020B34BE7
:100C6000586820F4741042EA01031843AF4B5860EF
:100C70007047B1490866704702460020AB4BD86AFE
:100C8000AE4B184042EA01031843A84BD8627047A4
:100C900001460020A54AD06A20F0F0000843D06247
:100CA000704701460020A14AD06A20F470600843D2
:100CB000D0627047A04988667047014600209B4A71
:100CC000D06A20F470400843D06270479A490867A0
:100CD000704701460020954A506820F00300084301
:100CE000506070479148406800F00C007047014622
:100CF00000208E4A506820F0F00008435060704792
:100D000001460020894A506820F4E06008435060A2
:100D1000704701460020854A506820F4605040EA40
:100D2000C1005060704729B1804A527A02437F4B1C
:100D30005A7204E07D4A527A82437C4B5A72704761
:100D40007D49D8310860704701460020774A5068D5
:100D500020F440400843506070477949086070476C
:100D60007749091D086070470021704A20321170D0
:100D70006E4A82F82010012802D004280AD104E02B
:100D800001216A4A2032117005E00521674A2032AC
:100D9000117000E000BF00BF70476A4908607047EB
:100DA0006249096A0143614A1162704765494439E1
:100DB000086070472DE9F041002100220025002342
:100DC0000026002400278C46DFF86081D8F80480D4
:100DD00008F00C0121B1042907D0082959D109E0F4
:100DE000DFF86481C0F8008058E0DFF86081C0F867
:100DF000008053E0DFF83481D8F8048008F47012E2
:100E0000DFF82881D8F8048008F48035920C0D2A88
:100E100001D0921C00E0062235B9DFF8348102FBD4
:100E200008F8C0F8008033E0DFF80081D8F82C80A3
:100E300008F48036DFF8F480D8F82C8008F00F082A
:100E400008F1010446B9DFF80481B8FBF4F808FBA7
:100E500002F8C0F800801BE0DFF8D080D8F82C80C2
:100E6000C8F3031808F10107DFF8C080D8F82C8018
:100E7000C8F3032808F1020CDFF8D080B8FBF7F8BC
:100E800008FB0CF8B8FBF4F808FB02F8C0F8008087
:100E900004E0DFF8B480C0F8008000BF00BFDFF8D6
:100EA0008C80D8F8048008F0F0010909DFF8A480EC
:100EB00018F80130D0F8008028FA03F8C0F8048050
:100EC000DFF86880D8F8048008F4E061090ADFF8E8
:100ED000848018F80130D0F8048028FA03F8C0F8AC
:100EE0000880DFF84880D8F8048008F46051C90A07
:100EF000DFF8608018F80130D0F8048028FA03F891
:100F0000C0F80C80DFF82480D8F8048008F4404151
:100F1000890BDFF8448018F80130D0F80C80B8FB5A
:100F2000F3F8C0F81080BDE8F08100000010024026
:100F30000000FFF0FFFFF6FE00004242F0FFFEFF60
:100F4000C40542428004424200127A0040787D018A
:100F500000093D00060000201600002029B1354A96
:100F600052690243334B5A6104E0324A5269824368
:100F7000304B5A61704729B12E4A926902432D4B7A
:100F80009A6104E02B4A926982432A4B9A61704726
:100F900029B1284AD2690243264BDA6104E0254A86
:100FA000D2698243234BDA61704729B1214A926AA0
:100FB0000243204B9A6204E01E4A926A82431D4B10
:100FC0009A62704729B11B4AD2680243194BDA6012
:100FD00004E0184AD2688243164BDA60704729B1A0
:100FE000144A12690243134B1A6104E0114A126950
:100FF0008243104B1A6170470F49086070470F49D0
:10100000C86470470B49C87170470A48406A40F08D
:10101000807008494862704701460020054A92687E
:101020000A400AB1012000E000207047014988729F
:10103000704700000010024040044242000042425B
:1010400010B50446CE48844208D101218014FFF730
:10105000B9FF0021A014FFF7B5FF16E0C94884428C
:1010600008D101210014FFF7BAFF00212014FFF777
:10107000B6FF0AE0C448844207D10121C013FFF73C
:10108000AEFF0021E013FFF7AAFF10BD10B500224C
:10109000028802F441520B884C8823438C882343F6
:1010A000CC8823430C8923434C8923438C892343D5
:1010B000CC8923431A430280838B4FF2FF74234071
:1010C00083830B8A038210BD2DE9F04F85B006465D
:1010D0000C464FF0000A02274FF000084FF0010BBA
:1010E0000025A946B08B4FF240010840B083022092
:1010F0003084B6F81CA0A068022801D100BF59E0D6
:10110000A08810B94FF0010B01E04FF0020B9D4891
:10111000864202D14FF4003501E04FF480259B4810
:10112000C06A2840C8B19948C06AC0F30335052D8C
:1011300003D90F2D01D2AD1C02E00F2D00D11425D3
:101140009248C06AC0F3031000F101099048B0FB57
:10115000F9F068434FEA400904E06846FFF72AFEC9
:10116000DDF80090E088B0F5007F0AD14FEA192041
:1011700000EB80004000A168B0FBF1F0401D85B29B
:101180000BE04FEA4B10B9FBF0F000EB80004000A1
:10119000A168B0FBF1F0401D85B20A20B5FBF0F567
:1011A00005F00108A5EB0800C0F34F074FF6FF70EC
:1011B00000EA0828022F01DBFF2F02DD02274FF093
:1011C0000008E08840EA080038433084A088A189FC
:1011D0000843618808432188084340F4006040EADE
:1011E0000A0AA6F81CA005B0BDE8F08F0021018016
:1011F00041808180C180018141818181C18107213C
:10120000018270470021018041808180C1800221DC
:10121000816000218181704721B1028842F0400243
:10122000028004E002884FF6BF731A4002807047C4
:1012300021B1828B42F48062828304E0828B4FF67C
:10124000FF331A408283704730B5002400230C110D
:101250000125A540ABB21AB185881D43858002E007
:1012600085889D43858030BD1AB183880B43838078
:1012700002E083888B4383807047818170470146F9
:10128000888970474FF6FF62914204D0028842F489
:101290008072028004E002884FF6FF631A400280E9
:1012A000704721B1828842F00402828004E0828883
:1012B0004FF6FB731A408280704702884FF2FF732B
:1012C0001A40028002880A4302807047018841F474
:1012D00080510180704721B1028842F4005202809F
:1012E00004E002884DF6FF731A4002807047024600
:1012F0000020012901D0108B00E0908A7047014640
:10130000088A7047B1F5804F04D1028842F48042C8
:10131000028004E002884BF6FF731A400280704797
:101320000246002013890B400BB1012000E0002091
:101330007047CA4302817047F0B50246002000247E
:101340000023002501F00F070126BE40B4B20B11A7
:1013500001269E40B3B2968806EA03051689264008
:1013600016B10DB1012000E00020F0BD10B5002243
:1013700001F00F040123A3409AB2D343038110BDAF
:101380000030014000380040003C004000100240A6
:1013900040787D0110B50446FB48844209D1012103
:1013A0008803FFF70FFE00214FF48040FFF70AFE8D
:1013B00032E0F648844209D101214804FFF70FFECC
:1013C00000214FF40030FFF70AFE25E0F048844288
:1013D00009D101218804FFF702FE00214FF480208B
:1013E000FFF7FDFD18E0EB48844209D10121C80454
:1013F000FFF7F5FD00214FF40020FFF7F0FD0BE0B3
:10140000E548844208D101210805FFF7E8FD0021E5
:101410004FF48010FFF7E3FD10BD2DE9F04786B0D3
:1014200005460E460024A24600BFA1460027B0890B
:1014300000B100BF2F462C8A4CF6FF700440F088A4
:1014400004432C82AC894EF6F3100440B0883189F5
:101450000843718908430443AC81AC8A4FF6FF40CE
:101460000440B0890443AC8201A8FFF7A3FCC6483E
:10147000874202D1DDF810A001E0DDF80CA0A889B8
:1014800000F4004040B10AEBCA0000EB0A103168DA
:101490004900B0FBF1F807E00AEBCA0000EB0A10C4
:1014A00031688900B0FBF1F86420B8FBF0F004016A
:1014B0002009642101FB1089A88900F4004040B193
:1014C000322000EBC900B0FBF1F000F0070004434C
:1014D00008E0322000EB09106421B0FBF1F000F0CD
:1014E0000F0004432C8106B0BDE8F0874FF416517D
:1014F000016000218180C18001810C214181002196
:101500008181704710B502460020108A4FF2FF0318
:1015100018400B884C8823438C882343CC88234372
:101520001843108210BD0021018041808180C1805C
:10153000704721B1828942F40052828104E082899D
:101540004DF6FF731A4082817047F0B503460024C0
:1015500000260025002040F66A17B94200D100BFDE
:101560001846C1F3421401F01F06012707FA06F5D9
:10157000012C01D10C3004E0022C01D1103000E02C
:1015800014301AB107682F43076002E00768AF43C1
:101590000760F0BD1AB1838A0B43838202E0838A1D
:1015A0008B4383827047028A4FF6F0731A4002829F
:1015B000028A0A430282704782894FF2FF731A40FF
:1015C000828182890A438281704721B1828942F0F7
:1015D0000202828104E082894FF6FD731A40828103
:1015E0007047028A4FF6DF731A400282028A0A436A
:1015F0000282704721B1028A42F48042028204E0F2
:10160000028A4BF6FF731A4002827047C1F3080248
:101610008280704701468888C0F30800704781893E
:1016200041F0010181817047028BD2B20283028BAB
:1016300042EA012202837047028B02F47F42028356
:10164000028B0A430283704721B1828A42F0200252
:10165000828204E0828A4FF6DF731A4082827047EA
:1016600021B1828A42F01002828204E0828A4FF61F
:10167000EF731A408282704721B1828A42F00802D9
:10168000828204E0828A4FF6F7731A4082827047A2
:1016900021B1828942F40042828103E08289C2F34F
:1016A0000E028281704721B1828A42F400628282F6
:1016B00004E0828A4FF2FF731A4082827047828A66
:1016C0004FF6FB731A408282828A0A4382827047F5
:1016D00021B1828A42F00202828204E0828A4FF6BD
:1016E000FD731A408282704702460020B1F5007FE8
:1016F00000D100BF13880B400BB1012000E0002097
:10170000704701F40072B2F5007F00D100BFCA43F8
:101710000280704770B50246002400230025002097
:1017200040F66A16B14200D100BFC1F3421501F084
:101730001F03012606FA03F3012D02D196893340D7
:1017400006E0022D02D1168A334001E0968A33402A
:101750000C12012606FA04F41688344013B10CB1B9
:10176000012000E0002070BD10B50022002340F6EB
:101770006A14A14200D100BF0A1201249440A3B20E
:10178000DC43048010BD00000038014000440040EC
:1017900000480040004C0040005000400CB50020C4
:1017A000019000909248006840F4803090490860B1
:1017B00000BF8F48006800F4003000900198401C82
:1017C0000190009818B90198B0F5A06FF1D1884840
:1017D000006800F4003010B10120009001E000200A
:1017E0000090009801285CD18248006840F0100009
:1017F000804908600846006820F003000860084639
:10180000006840F002000860794840687849486004
:101810000846406848600846406840F48060486078
:101820000846C06A744908407149C8620846C06ADF
:10183000724908436E49C8620846006840F08060FB
:10184000086000BF6A48006800F000600028F9D016
:101850006748406820F47C10654948600846406845
:1018600040F4E81048600846006840F08070086066
:1018700000BF5F48006800F000700028F9D05C48A5
:10188000406820F003005A4948600846406840F02C
:101890000200486000BF5648406800F00C0008286D
:1018A000F9D10CBD10B5FFF779FF10BD10B5504848
:1018B000006840F001004E49086008464068504901
:1018C00008404B494860084600684E49084048496E
:1018D00008600846006820F48020086008464068D8
:1018E00020F4FE0048600846006820F0A050086020
:1018F0004FF47F0088600020C862FFF7D3FF4FF0ED
:1019000000604149086010BDF0B5002100200023AF
:101910000024002200250026354F7F6807F00C01C7
:1019200021B1042908D008294BD10BE0374FDFF84B
:10193000E0C0CCF800704AE0364FDFF8D4C0CCF8F5
:10194000007044E02A4F7F6807F47010284F7F68CA
:1019500007F48033800C0D2801D0801C00E00620A5
:1019600033B92D4F4743DFF8A8C0CCF8007027E00B
:101970001F4FFF6A07F480341D4FFF6A07F00F07FF
:101980007A1C44B9234FB7FBF2F74743DFF880C016
:10199000CCF8007014E0164FFF6AC7F303177D1CE4
:1019A000134FFF6AC7F30327BE1C1A4FB7FBF5F7A7
:1019B0007743B7FBF2F74743DFF854C0CCF8007029
:1019C00005E0124FDFF848C0CCF8007000BF00BF40
:1019D000074F7F68C7F30317DFF840C01CF80710F4
:1019E0000B4F3F68CF40DFF828C0CCF80070F0BD47
:1019F000001002400020024000F0FEFF44060100FB
:101A00000000FFF0FFFFF6FE08ED00E000127A0094
:101A10001C00002040787D0100093D0020000020CE
:101A20000648804706480047FEE7FEE7FEE7FEE778
:101A3000FEE7FEE7FEE7FEE7FEE7FEE7AD1800087B
:101A400051010008064C074D06E0E06840F0010334
:101A500094E8070098471034AC42F6D3FEF77CFBBD
:101A6000B81A0008D81A0008014A024900F013B851
:101A7000690100083000002002E008C8121F08C1F8
:101A8000002AFAD170477047002001E001C1121FFF
:101A9000002AFBD170472DE9F04116460F46044657
:101AA000002503E03946B047641C6D1C20780028EF
:101AB000F8D12846BDE8F081D81A000800000020BF
:101AC00034000000781A00080C1B000834000020C5
:101AD00004040000881A00080200FF000200000051
:101AE00000000102030401020304060708090204BE
:101AF0000608000000A24A040000000000000000E8
:0C1B0000010203040607080900000000B1
:04000005080001519D
:00000001FF
