:020000040800F2
:1000000090070020ED010008F314000829120008F1
:10001000F1140008E3030008451700080000000081
:10002000000000000000000000000000F7140008BD
:10003000E503000800000000F5140008F9140008AA
:10004000070200080702000807020008070200086C
:10005000070200080702000807020008070200085C
:10006000070200080702000807020008070200084C
:10007000070200080702000807020008070200083C
:10008000070200080702000807020008070200082C
:10009000070200080702000807020008070200081C
:1000A000070200080702000807020008070200080C
:1000B00007020008070200080702000807020008FC
:1000C00007020008070200080702000807020008EC
:1000D00007020008070200080702000807020008DC
:1000E00007020008070200080702000800000000DD
:1000F0000000000000000000000000000000000000
:1001000000000000000000000702000807020008CD
:10011000070200080702000807020008070200089B
:10012000070200080702000807020008070200088B
:10013000070200080702000807020008070200087B
:10014000070200080702000807020008070200086B
:1001500000F002F800F03AF80AA090E8000C82449F
:100160008344AAF10107DA4501D100F02FF8AFF27C
:10017000090EBAE80F0013F0010F18BFFB1A43F085
:10018000010318474C1700006C170000103A24BFF9
:1001900078C878C1FAD8520724BF30C830C144BFEC
:1001A00004680C607047000000230024002500262E
:1001B000103A28BF78C1FBD8520728BF30C148BFCA
:1001C0000B6070471FB51FBD10B510BD00F0CFF814
:1001D0001146FFF7F7FF01F0C7FA00F0EDF803B49E
:1001E000FFF7F2FF03BC00F0F5F800000948804774
:1001F00009480047FEE7FEE7FEE7FEE7FEE7FEE709
:10020000FEE7FEE7FEE7FEE704480549054A064B20
:10021000704700006515000851010008900100209A
:1002200090070020900300209003002053EA020C66
:1002300000F069802DE9F04B4FF00006002B1FBF46
:10024000B3FA83F503FA05F424FA05F65E4012BF0B
:100250001643B2FA82F502FA05F4C5F120051EBF75
:1002600022FA05FC44EA0C04203556EA044C4FEA15
:10027000144418BF641C4FF000084FF0000990426E
:1002800071EB030C39D3002919BFB1FA81F701FAD8
:1002900007F6B0FA80F700FA07F6C7F120071EBF8D
:1002A00020FA07FC46EA0C062037B6FBF4FCA7EB65
:1002B0000507103F07F01F0BCBF120060CFA0BFBD4
:1002C0002CFA06F644BFB3460026202FA4BF5E4694
:1002D0004FF0000B5BEA060C08BF4FF0010B19EB67
:1002E0000B09ABFB027C48EB0608C01B06FB02CCEB
:1002F0000BFB03CC71EB0C01C1E70B4602464146F8
:100300004846BDE8F08B13B54FF000004FF00001F8
:10031000AFF30080BDE81C4070474FF0000200B50D
:10032000134694469646203922BFA0E80C50A0E818
:100330000C50B1F12001BFF4F7AF090728BFA0E8C6
:100340000C5048BF0CC05DF804EB890028BF40F892
:10035000042B08BF704748BF20F8022B11F0804FD4
:1003600018BF00F8012B70477047704770477546FB
:1003700000F02CF8AE4605006946534620F0070011
:10038000854618B020B5FFF73FFFBDE820404FF08D
:1003900000064FF000074FF000084FF0000B21F06F
:1003A0000701AC46ACE8C009ACE8C009ACE8C0093C
:1003B000ACE8C0098D46704710B50446AFF3008025
:1003C0002046BDE81040FFF70ABF00000048704714
:1003D0003001002001491820ABBEFEE726000200D4
:1003E0007047FEE7704700002DE9F84FDFF8B8913D
:1003F000002409F1040A0AF1040B23460F270BF12C
:10040000040EC9E00125A5402A40AA427DD1674ECD
:10041000D1F804C0ACEB0608B44532D014DCBCF112
:10042000030F3AD009DCBCF1000F2AD0BCF1010F58
:100430001CD0BCF1020F31D11DE0BCF1110F17D05F
:10044000BCF1120F2AD119E0B8F5881F19D006DCCB
:10045000B8F5803F15D0B8F5801F1FD111E0B8F571
:10046000001F0ED0B8F5041F18D10AE0CB6815E0C4
:10047000CB681B1D12E0CB6808330FE0CB680C3350
:100480000CE08B682BB1012B4FF0080303D04561C2
:1004900004E0042302E0056100E00023FF2A01D804
:1004A000064601E000F104064FEA840501D9A5F1F2
:1004B0002005D6F8008007FA05FC28EA0C0803FAA4
:1004C00005F548EA0508C6F800804D68ED0062D5DC
:1004D000374DAE6946F00106AE61AD6924F0030602
:1004E00005F001050095334D06EB050CDCF80850CE
:1004F000A607360F07FA06F825EA0805DFF8B880E0
:10050000404503D14FF0000817E044E0DFF8AC802D
:10051000404502D14FF001080FE0DFF8A4804045CC
:1005200002D14FF0020808E0DFF89880404502D180
:100530004FF0030801E04FF0040808FA06F848EA13
:100540000508CCF808804D68D9F80060ED034D46E9
:1005500001D5164300E096432E604D68DAF800603E
:10056000AD03554601D5164300E096432E604D6815
:10057000DBF80060ED025D4601D5164300E09643CE
:100580002E604D68DEF80060AD02754601D5164359
:1005900000E096432E60641C0D682A46E5407FF417
:1005A00031AFBDE8F88F00000004014000001110D9
:1005B000001002400000014000080140000C014012
:1005C00000100140001401400AB1016170470904A4
:1005D000FBE7000001488068704700000000002031
:1005E0000248816802781144816070470000002051
:1005F000074810B5016841F010010160032000F0C8
:1006000067F80F2000F006F800F024F8002010BD75
:100610000020024070B50D4D04464FF47A712878E1
:10062000B1FBF0F00A490968B1FBF0F000F048FBBB
:1006300048B9102C07D200222146501E00F028F89D
:1006400000206C6070BD012070BD00000000002023
:100650000C0000200C4808B5816941F0010181615E
:10066000816901F001010091C16941F08051C161CE
:10067000C06900F0805000900448416821F0E061BA
:1006800041F00071416008BD0010024000000140CF
:10069000F0B40E4B1B680C46C3F30223C3F10705ED
:1006A000042D00D90425191D072901D2002300E0DB
:1006B000DB1E012606FA05F1491E214099409E40A5
:1006C000761E16403143F0BC01F03DB80CED00E061
:1006D000064900F0070208684FF6FF03184040EA99
:1006E0000220034A10430860704700000CED00E050
:1006F0000000FA052DE9F0470F46050061D0434E92
:10070000306800F00700B84209D2306820F00700D6
:1007100038433060306800F00700B84251D1286893
:100720003B4C810712D5400703D5606840F4E06078
:1007300060602878000703D5606840F4605060600E
:100740006068A96820F0F000084360602878C0075E
:1007500028D06868012810D02168022810D08907A5
:1007600000292EDA616821F0030101436160FFF77F
:1007700031FF804641F288390DE021688903EFE7B7
:100780008901EDE7FFF726FFA0EB0801494502D9F3
:100790000320BDE8F0876068696800F00C00B0EBEA
:1007A000810FEFD1306800F00700B8420BD93068F4
:1007B00020F0070038433060306800F00700B8428E
:1007C00001D00120E5E72878400705D56068E96891
:1007D00020F4E060084360602878000706D5606870
:1007E000296920F4605040EAC100606000F018F808
:1007F0006168084AC1F30311515CC84006490860AA
:1008000006480068FFF706FF0020C2E7002002400C
:1008100000100240C01800080C0000200400002056
:10082000F0B523A289B00FCA04AC84E80F0024A15C
:100830000FC98DE80F0026494A68264802F00C03CC
:10084000042B2FD0082B2DD104A8C2F38343C45C02
:10085000D00329D5C86A00F00F001DF80020C86A2F
:10086000C00316D5C86AC96AC0F30310C1F30321D7
:10087000401C891CA0FB0223A1FB0416154F002578
:10088000A1FB070C06FB07C601FB0561FFF7CEFCC9
:1008900003E010486043B0FBF2F09DF81D10A14248
:1008A00000D1400809B0F0BD0B486043FAE70000F2
:1008B000000004050607080900000000000D000004
:1008C0000102030405060708090A0B0C0D0E0F10A0
:1008D0000010024000127A0000093D002DE9F84F97
:1008E000040070D02078F14DC00749D06868C0F38B
:1008F0008100012807D06868C0F38100022809D16F
:100900006868C00306D52868800339D5A068002828
:10091000E7D035E0A068B0F5803F0BD010B1B0F55E
:10092000A02F11D0286820F480302860286820F497
:10093000802002E0286840F480302860A06890B1F0
:10094000FFF748FE06460AE0286840F48020286049
:10095000F0E700BFFFF73EFE801B642876D82868CA
:100960008003F7D50CE0FFF735FE064605E000BF33
:10097000FFF730FE801B6428F0D828688003F7D486
:100980002078CB4E80074FF001094FF000073AD591
:10099000686810F00C0F07D06868C0F38100022867
:1009A00009D16868C00306D42868800715D5606936
:1009B000012808D111E06069B8B1C6F80090FFF7CE
:1009C00009FE804606E042E1FFF704FEA0EB0800C6
:1009D0000228C3D828688007F6D52868A16920F0C6
:1009E000F80040EAC10028600DE03760FFF7F2FD33
:1009F000804605E0FFF7EEFDA0EB08000228ADD829
:100A000028688007F6D4207800072ED5A948E16928
:100A1000E9B1C0F80090FFF7DDFD804606E000BFB9
:100A2000FFF7D8FDA0EB0800022897D8686A800776
:100A3000F6D5A1484FF4FA510068B0FBF1F00090F0
:100A400000BF0098411E0091FAD20EE0B0E00760AE
:100A5000FFF7C0FD804605E0FFF7BCFDA0EB0800F6
:100A6000022889D8686A8007F6D42078400763D5C1
:100A7000E8694FF00008C00009D4E86940F08050F0
:100A8000E861E8694FF0010800F0805000908B4861
:100A90000168C90512D40168834641F48071016080
:100AA000FFF798FD824605E0FFF794FDA0EB0A00F2
:100AB00064287DD8DBF80000C005F5D52069012841
:100AC0000AD008B1052813D0286A20F00100286256
:100AD000286A20F0040002E0286A40F00100286241
:100AE000206941F2883B98B1FFF774FD82460BE024
:100AF000286A40F004002862EEE700BFFFF76AFDB5
:100B0000A0EB0A01594553D8286A8007F6D50CE0B6
:100B1000FFF760FD824605E0FFF75CFDA0EB0A01F0
:100B2000594545D8286A8007F6D4B8F1000F03D09C
:100B3000E86920F08050E861E06AD0B36968C903D1
:100B400007D56968C1F38101022902D1E96AC903A5
:100B50007DD4022808D0E86A20F48030E862B766C5
:100B6000FFF738FD80463BE02868C00005D5E86AFD
:100B7000616B00F0F000884269D1B766FFF72AFD8B
:100B8000804605E0FFF726FDA0EB0800642874D836
:100B900028680001F6D4E86A616B20F0F000084391
:100BA000E862E86A216B20F470600843E86201E0C3
:100BB00063E018E0C6F86890FFF70CFD804605E09A
:100BC000FFF708FDA0EB0800642856D8286800014C
:100BD000F6D508E0FFF7FEFCA0EB080064284CD82F
:100BE00028680001F6D4206A90B36968C1F38101D6
:100BF000022949D00228376603D0FFF7EBFC0446F0
:100C00003EE0FFF7E7FC074605E000BFFFF7E2FC28
:100C1000C01B022831D828688001F7D4606AB0F57B
:100C2000803F09D1E86A61680843E862E86AE168E0
:100C300020F00F000843E862D4E90901084369681D
:100C400021F4741108436860C6F8609001E028E060
:100C500029E0FFF7BFFC044605E000BFFFF7BAFC40
:100C6000001B022809D828688001F7D51BE000BFC7
:100C7000FFF7B0FC001B022802D90320BDE8F88F63
:100C800028688001F4D40EE00128F7D06868626A11
:100C900000F48031914204D1A16A00F470108842BE
:100CA00001D00120EAE70020E8E700000010024040
:100CB00000004242800442420C00002000700040CC
:100CC00010B5401EB0F1807F01D3012010BD4FF060
:100CD000E02460610F21601700F035FD0020A06165
:100CE00007202061002010BD10B590F83C20012A9B
:100CF00022D0012280F83C20CA688C6822F440721D
:100D000022434C6822F4806222430C6822F4006281
:100D100022430C6922F4805222434C6922F400528F
:100D20002243C969002322F480420A4301684A64CD
:100D300080F83C30002010BD022010BD70B590F846
:100D40003C20012A29D0012480F83C40022280F86E
:100D50003D2003685A689D6822F070060A68324395
:100D60005A600F4B02689A420BD0B2F1804F08D004
:100D70000C4B9A4205D00C4B9A4202D00B4B9A4234
:100D800004D1496825F080031943916080F83D4003
:100D9000002180F83C10084670BD022070BD0000A4
:100DA000002C01400004004000080040000C0040FE
:100DB0002DE9F0410D46040003D094F83D0018B130
:100DC00008E00120BDE8F081002084F83C002046C6
:100DD00000F040F8022084F83D002068816844F269
:100DE000070291438160211D206800F0BDFB22684D
:100DF00090689169166A2B68AF69034340F203302B
:100E0000814341EA0721A868EF6908434FF6FC4196
:100E10008843E96840EA0720014328692F6A0001F6
:100E200040EA0730084369686D6926F0220646EA01
:100E30000515294393602268906154F8460B0162BE
:100E4000012004F81F09E0752076E0762077A07570
:100E50000020B7E710B586B0002100910191029102
:100E60000391234A01682348234C91421DD1C16953
:100E700041F00201C161C16901F00201049181697F
:100E800041F0100181618069694600F01000049012
:100E9000C02000901948FFF7A7FA606820F440606E
:100EA00040F0E06040F440601EE0154A91421CD1E1
:100EB000C16941F00401C161C16901F004010491FB
:100EC000816941F0200181618069694600F020005C
:100ED00004904FF4405000900A48FFF785FA60688C
:100EE00040F0E06040F48050606006B010BD00004B
:100EF00000040040001002400000014000100140CA
:100F0000000800400014014070B590F83E600446AF
:100F100090F83F5090F8423090F84320022021B1E1
:100F200004290ED0012E1BD114E0012E18D1012B63
:100F300016D184F83E0084F8420001220021206886
:100F400020E0012D0CD1012A0AD184F83F0084F859
:100F5000430014E0012D03D1012B01D1012A01D05E
:100F6000012070BD84F83E0084F83F0084F8420000
:100F700084F8430001220021206800F033FB0122A5
:100F80000421206800F02EFB2068016841F0010177
:100F90000160002070BD000000B585B00021009107
:100FA0000191029103911A4B02681A4802219A4258
:100FB0001AD1826942F0400282618069039100F097
:100FC000400004900802CDE9000169461248FFF78D
:100FD0000BFA1248416821F0C00141F0E06141F094
:100FE000C001416005B000BDB2F1804FFAD1826905
:100FF00042F0040282618069039100F004000490D1
:101000000120CDE9000169460548FFF7EDF9E9E760
:10101000002C014000100240001801400000014077
:101020000008014070B5044690F83C000D460128C8
:101030000AD0012084F83C0042B1042A18D0082AC2
:101040002AD00C2A4DD139E0022070BD206800F072
:10105000D7FA2068816941F00801816120688169BF
:1010600021F004018161206881692A69114311E03E
:10107000206800F0EDFA2068816941F40061816127
:101080002068816921F480618161206881692A6911
:1010900041EA0221816124E0206800F005FB20681C
:1010A000C16941F00801C1612068C16921F00401F2
:1010B000C1612068C1692A69114311E0206800F00C
:1010C0001FFB2068C16941F40061C1612068C169EA
:1010D00021F48061C1612068C1692A6941EA022165
:1010E000C161002084F83C0070BD10B5040003D03D
:1010F00094F83D0010B107E0012010BD002084F8F5
:101100003C00204600F01EF8022084F83D00211D1E
:10111000206800F029FA012084F8460084F83E0097
:1011200084F83F0084F8400084F8410084F84200CD
:1011300084F8430084F8440084F8450084F83D00B6
:10114000002010BD08B50C4A01680C48914207D137
:10115000816941F400618161806900F4006009E007
:10116000B1F1804F07D1C16941F00101C161C0698E
:1011700000F00100009008BD002C0140001002406A
:1011800010B50446022249B104290ED0082913D013
:1011900094F84100012816D0012010BD94F83E00BB
:1011A0000128F9D184F83E200FE094F83F0001288F
:1011B000F2D184F83F2008E094F840000128EBD1F8
:1011C00084F8402001E084F841200122206800F0EA
:1011D00009FA11492068884203D1426C42F4004266
:1011E0004264206888420BD0B0F1804F08D00B4990
:1011F000884205D00A49884202D00A49884204D16F
:10120000816801F00701062903D0016841F001015E
:101210000160002010BD0000002C014000040040CF
:1012200000080040000C0040FEE700002DE9F04FF0
:1012300085B000243248009401940294039481699B
:1012400041F010018161816901F01001049181690F
:1012500041F004018161816901F004010491816917
:1012600041F040018161816901F04001049181698F
:1012700041F008018161816901F0080104918169EF
:1012800041F0200181618069DFF8789000F0200052
:101290004FF4D0450490002229464846FFF794F9C0
:1012A000DFF864A04FF48067002239465046FFF70C
:1012B0008BF9DFF858B04FF4807800224146584649
:1012C000FFF782F90095022601250396CDE9015426
:1012D00069464846FFF788F800970396CDE9015420
:1012E00069465046FFF780F8CDF800800396CDE9B7
:1012F000015469465846FFF777F805B0BDE8F08F0E
:101300000010024000180140000C01400010014094
:1013100010B592B000240F941C2108A81094FEF779
:10132000FCFF20216846FEF7F8FF20481E490160B7
:101330001421C0E901144FF46161C0E90314446150
:101340008461FFF7D2FE08B172B6FEE70F940FA9D1
:1013500016481094FFF7F2FC08B172B6FEE7602061
:10136000CDE908040A940B940C940D94002208A96A
:101370000E480E94FFF756FE08B172B6FEE70094D1
:101380004FF40050CDE9044002940194039469465F
:1013900006480794FFF7A8FC08B172B6FEE70348B9
:1013A000FFF7FAFD12B010BD002C01401000002024
:1013B00010B58AB0002407941C2168460894FEF7F3
:1013C000ACFF16484FF0804101601421C0E90114C0
:1013D0004FF46161C0E903148461FFF786FE08B130
:1013E00072B6FEE7079407A90C480894FFF7A6FC1D
:1013F00008B172B6FEE76020CDE900040294002235
:10140000694606480494FFF70DFE08B172B6FEE780
:101410000248FFF7C1FD0AB010BD000058000020CF
:1014200010B58CB024216846FEF777FF00241548DC
:10143000099413490A94C0E900144FF6FF71C0E9FA
:101440000241046184610120CDE90004CDE9020478
:101450000494CDE90540079469460A480894FFF7CB
:10146000A7FC08B172B6FEE7099409A905480A94D9
:10147000FFF764FC002801D072B6FEE70CB010BD87
:1014800000040040A000002010B58CB02421684664
:10149000FEF743FF00241548099413490A94C0E954
:1014A00000144FF6FF71C0E902410461846101201C
:1014B000CDE90004CDE902040494CDE90540079488
:1014C00069460A480894FFF773FC08B172B6FEE754
:1014D000099409A905480A94FFF730FC002801D0B7
:1014E00072B6FEE70CB010BD00080040E800002016
:1014F000FEE7FEE770477047FFF772B870B594B02B
:1015000038216846FEF709FF14210EA8FEF705FFF3
:10151000012500242804CDE902040226CDE9086053
:101520000095059501944FF4E010CDE90A04684652
:10153000FFF7D4F908B172B6FEE70F20CDE90E0629
:101540004FF48060CDE9104002210EA81294FFF7FD
:10155000D1F808B172B6FEE70148056714B070BD56
:101560000000424270470000F0B50268194B1A4C67
:101570001A4D1B4E4FF08047984207D0B84205D015
:10158000A04203D0A84201D0B04204D122F0700C96
:101590004A6842EA0C02984207D0B84205D0A042FD
:1015A00003D0A84201D0B04203D122F44074CA68EB
:1015B00022434C6922F08002224302608A68C262A0
:1015C0000A688262984201D109690163012141617F
:1015D000F0BD0000002C0140000400400008004065
:1015E000000C004010B501F01F030121046A99406E
:1015F0008C430462016A9A401143016210BD0000ED
:1016000030B5026A22F001020262026A436884690C
:1016100024F073050C682C4322F002058A682A43E3
:101620000A4DA8420BD122F00805CA6823F4407382
:101630002A434D6922F004021D438B692B4343600A
:10164000846149684163026230BD0000002C0140A2
:1016500030B5026A22F010020262026A43688469AD
:101660000D6824F4E64444EA05248D6822F0200243
:1016700042EA05120B4DA8420ED1CD6822F080023D
:1016800042EA05124D6923F4406343EA85038D69FC
:1016900022F0400243EA8503436084614968816324
:1016A000026230BD002C014030B5026A22F4807223
:1016B0000262036A4268C46923F4007324F073056C
:1016C0000C682C438D6843EA05230C4DA8420ED1CB
:1016D000CD6823F4006343EA05234D6922F44052A8
:1016E00042EA05128D6923F4806342EA05124260E2
:1016F000C4614968C163036230BD0000002C014031
:1017000030B5026A22F480520262046A4268C369F8
:101710000D6823F4E64343EA05238D6824F400545E
:1017200044EA0534064DA84204D14D6922F48042B2
:1017300042EA85124260C36149680164046230BDB7
:10174000002C0140FEE70907090E002804DB00F128
:10175000E02080F80014704700F00F0000F1E02056
:1017600080F8141D70470000FEF742FFFFF7C6FE29
:10177000FFF75CFDFFF7CCFDFFF752FEFFF784FE9D
:10178000FFF716FE00214B48FFF7FAFC49483C21C1
:101790009030FFF7B9FBDFF820B10122D1025C469F
:1017A0005846FEF711FF00224FF400512046FEF785
:1017B0000BFF404E4FF4FA7031684863002106F188
:1017C0004800FFF7DDFC3C2106F1D800FFF79CFB49
:1017D000012291023948FEF7F7FE00224FF48041C2
:1017E0002046FEF7F1FE06F1480740F2DC5039686A
:1017F000486306F1900906F1D80A4FF4FA6844F6F6
:10180000206500BFD9F80000406ADAF800104C6A81
:10181000A0F59C412039A94201D2404606E0A0F53E
:101820001C414039A94204D240F6C41031684863D3
:1018300016E04EF66021884207D300224FF4006183
:101840005846FEF7C1FE012205E00122D1025846AA
:10185000FEF7BAFE00224FF400515846FEF7B4FEE0
:10186000A4F59C402038A84201D2404606E0A4F5E9
:101870001C404038A84204D240F6C410396848637E
:10188000C0E74EF66020844207D300224FF4806107
:101890000A48FEF799FE012205E00122910207485D
:1018A000FEF792FE00224FF480415846FEF78CFE70
:1018B000A8E700001000002000180140000C0140C3
:1018C00000000000000000000102030406070809F0
:1018D000F018000800000020100000008C01000833
:1018E000001900081000002080070000A80100086F
:1018F0000100000010000000000000000024F400BF
:04000005080001519D
:00000001FF
